:04000000803116280D
:100008007E14803120007F08F2008031A4208031E6
:1000180081316321803181319D2172082000FF00E8
:100028007E10090080311828F601F701F801F9015E
:10003800203084000030850016308131A4217E10E4
:1000480020008031272881314A2180318131902157
:10005800803181317A2180314030F3000030F40062
:100068008131302180312000B80103303802031873
:10007800812822008C1505302000B7000F30B6000B
:10008800F130890B4528B60B4528B70B45282200C7
:100098008C1105302000B7000F30B600F130890B05
:1000A8005328B60B5328B70B532801302000B6004D
:1000B8003608B80739283908B6003608F300013081
:1000C8008031FE20803122008C15A2283908B60024
:1000D8003608F30002308031FE20803122000C16F1
:1000E8008C1181283908B6003608F30003308031B6
:1000F800FE20803122000C168C1520002E08B60038
:100108003608A6002F08B6003608B9002E030319D2
:100118005F28023020002E0603196A2803302000C9
:100128002E060319762880302000B6003608F30022
:1001380000308031FE20803122008C110C12812881
:100148002000911DF92824001419CC28941ABA28E3
:100158002E30F00070082000A40024001108F000E0
:100168007008F1002000A201A301F328240011085F
:10017800F000200024088600870170088100013003
:10018800F0007008A4070130A2070030A33DF3284F
:10019800141CDF282630F0007008F8001108F00061
:1001A8007008F10014080139F000150E01397004C7
:1001B800031DD628E928161BF72814080139F00072
:1001C800150E01397004031DE1287808860087019F
:1001D800010891000130F0007008F8072000911123
:1001E80024001516F928200091112000921D0800FE
:1001F80092110800F40003307406031D0F29200033
:100208000E110D118D100D120E110D148D140D12ED
:100218002500910108007403031D1B2920000E11FD
:100228000D148D100D16730825009100080002307A
:100238007406031D282920000E110D108D140D16AB
:10024800730825009100080020000E110D108D1074
:100258000D122500910108008030240094002630FA
:100268009500161473359200FE3093002100911505
:1002780092150B178B1720009111921121000E086F
:1002880018388E002000A201A30108007030210058
:1002980099006830F300E430890B5029F30B50299A
:1002A8000032220091013030920021008C018D0132
:1002B80018308E0020008C018D018E01080020006E
:1002C800911E0800911223001908F0007008F90027
:1002D80061307902031C08007B307902031808009A
:1002E8007908F00070082000A50008000F30F3001E
:1002F8007308F400F501740823008C0075088D005C
:10030800903021009E006830F300E430890B8A2980
:10031800F30B8A290032080025009E01FF302000D7
:100328009B0007309C000C3025009300013096009C
:1003380008000B1D08008330200095000B110800F1
:0C034800640080010131890BA5290034FC
:020000040001F9
:04000E0084CFFFDBC1
:00000001FF
